{
  "_format": "hh-sol-artifact-1",
  "contractName": "FileStorage",
  "sourceName": "contracts/FileStorage.sol",
  "abi": [
    {
      "anonymous": false,
      "inputs": [
        {
          "indexed": false,
          "internalType": "string",
          "name": "cid",
          "type": "string"
        },
        {
          "indexed": true,
          "internalType": "address",
          "name": "user",
          "type": "address"
        }
      ],
      "name": "AccessGranted",
      "type": "event"
    },
    {
      "anonymous": false,
      "inputs": [
        {
          "indexed": false,
          "internalType": "string",
          "name": "cid",
          "type": "string"
        },
        {
          "indexed": true,
          "internalType": "address",
          "name": "requester",
          "type": "address"
        },
        {
          "indexed": false,
          "internalType": "bool",
          "name": "approved",
          "type": "bool"
        }
      ],
      "name": "AccessRequestDecided",
      "type": "event"
    },
    {
      "anonymous": false,
      "inputs": [
        {
          "indexed": false,
          "internalType": "string",
          "name": "cid",
          "type": "string"
        },
        {
          "indexed": true,
          "internalType": "address",
          "name": "requester",
          "type": "address"
        }
      ],
      "name": "AccessRequested",
      "type": "event"
    },
    {
      "anonymous": false,
      "inputs": [
        {
          "indexed": false,
          "internalType": "string",
          "name": "cid",
          "type": "string"
        },
        {
          "indexed": true,
          "internalType": "address",
          "name": "user",
          "type": "address"
        }
      ],
      "name": "AccessRevoked",
      "type": "event"
    },
    {
      "anonymous": false,
      "inputs": [
        {
          "indexed": true,
          "internalType": "address",
          "name": "owner",
          "type": "address"
        },
        {
          "indexed": false,
          "internalType": "string",
          "name": "cid",
          "type": "string"
        },
        {
          "indexed": false,
          "internalType": "enum FileStorage.Visibility",
          "name": "visibility",
          "type": "uint8"
        }
      ],
      "name": "FileRegistered",
      "type": "event"
    },
    {
      "inputs": [
        {
          "internalType": "uint256",
          "name": "index",
          "type": "uint256"
        },
        {
          "internalType": "bool",
          "name": "approve",
          "type": "bool"
        }
      ],
      "name": "decideAccessRequest",
      "outputs": [],
      "stateMutability": "nonpayable",
      "type": "function"
    },
    {
      "inputs": [
        {
          "internalType": "string",
          "name": "",
          "type": "string"
        }
      ],
      "name": "files",
      "outputs": [
        {
          "internalType": "address",
          "name": "owner",
          "type": "address"
        },
        {
          "internalType": "string",
          "name": "cid",
          "type": "string"
        },
        {
          "internalType": "enum FileStorage.Visibility",
          "name": "visibility",
          "type": "uint8"
        }
      ],
      "stateMutability": "view",
      "type": "function"
    },
    {
      "inputs": [
        {
          "internalType": "address",
          "name": "owner",
          "type": "address"
        }
      ],
      "name": "getAccessRequests",
      "outputs": [
        {
          "internalType": "string[]",
          "name": "cids",
          "type": "string[]"
        },
        {
          "internalType": "address[]",
          "name": "requesters",
          "type": "address[]"
        },
        {
          "internalType": "bool[]",
          "name": "approved",
          "type": "bool[]"
        },
        {
          "internalType": "bool[]",
          "name": "decided",
          "type": "bool[]"
        }
      ],
      "stateMutability": "view",
      "type": "function"
    },
    {
      "inputs": [
        {
          "internalType": "string",
          "name": "cid",
          "type": "string"
        }
      ],
      "name": "getFileDetails",
      "outputs": [
        {
          "internalType": "address",
          "name": "owner",
          "type": "address"
        },
        {
          "internalType": "enum FileStorage.Visibility",
          "name": "visibility",
          "type": "uint8"
        },
        {
          "internalType": "address[]",
          "name": "sharedWith",
          "type": "address[]"
        }
      ],
      "stateMutability": "view",
      "type": "function"
    },
    {
      "inputs": [
        {
          "internalType": "uint8",
          "name": "visibility",
          "type": "uint8"
        }
      ],
      "name": "getFilesByVisibility",
      "outputs": [
        {
          "internalType": "string[]",
          "name": "",
          "type": "string[]"
        }
      ],
      "stateMutability": "view",
      "type": "function"
    },
    {
      "inputs": [
        {
          "internalType": "address",
          "name": "user",
          "type": "address"
        }
      ],
      "name": "getSharedWithMe",
      "outputs": [
        {
          "internalType": "string[]",
          "name": "",
          "type": "string[]"
        }
      ],
      "stateMutability": "view",
      "type": "function"
    },
    {
      "inputs": [
        {
          "internalType": "address",
          "name": "user",
          "type": "address"
        }
      ],
      "name": "getUserFiles",
      "outputs": [
        {
          "internalType": "string[]",
          "name": "",
          "type": "string[]"
        }
      ],
      "stateMutability": "view",
      "type": "function"
    },
    {
      "inputs": [
        {
          "internalType": "string",
          "name": "cid",
          "type": "string"
        },
        {
          "internalType": "address",
          "name": "user",
          "type": "address"
        }
      ],
      "name": "grantAccess",
      "outputs": [],
      "stateMutability": "nonpayable",
      "type": "function"
    },
    {
      "inputs": [
        {
          "internalType": "string",
          "name": "cid",
          "type": "string"
        },
        {
          "internalType": "address",
          "name": "user",
          "type": "address"
        },
        {
          "internalType": "uint256",
          "name": "durationInSeconds",
          "type": "uint256"
        }
      ],
      "name": "grantTimedAccess",
      "outputs": [],
      "stateMutability": "nonpayable",
      "type": "function"
    },
    {
      "inputs": [
        {
          "internalType": "string",
          "name": "cid",
          "type": "string"
        },
        {
          "internalType": "address",
          "name": "user",
          "type": "address"
        }
      ],
      "name": "hasAccess",
      "outputs": [
        {
          "internalType": "bool",
          "name": "",
          "type": "bool"
        }
      ],
      "stateMutability": "view",
      "type": "function"
    },
    {
      "inputs": [
        {
          "internalType": "string",
          "name": "cid",
          "type": "string"
        },
        {
          "internalType": "uint8",
          "name": "visibility",
          "type": "uint8"
        },
        {
          "internalType": "address[]",
          "name": "sharedWith",
          "type": "address[]"
        }
      ],
      "name": "registerFile",
      "outputs": [],
      "stateMutability": "nonpayable",
      "type": "function"
    },
    {
      "inputs": [
        {
          "internalType": "string",
          "name": "cid",
          "type": "string"
        }
      ],
      "name": "requestAccess",
      "outputs": [],
      "stateMutability": "nonpayable",
      "type": "function"
    },
    {
      "inputs": [
        {
          "internalType": "string",
          "name": "cid",
          "type": "string"
        },
        {
          "internalType": "address",
          "name": "user",
          "type": "address"
        }
      ],
      "name": "revokeAccess",
      "outputs": [],
      "stateMutability": "nonpayable",
      "type": "function"
    },
    {
      "inputs": [
        {
          "internalType": "string",
          "name": "",
          "type": "string"
        },
        {
          "internalType": "address",
          "name": "",
          "type": "address"
        }
      ],
      "name": "timedAccess",
      "outputs": [
        {
          "internalType": "bool",
          "name": "hasAccess",
          "type": "bool"
        },
        {
          "internalType": "uint256",
          "name": "expiry",
          "type": "uint256"
        }
      ],
      "stateMutability": "view",
      "type": "function"
    }
  ],
  "bytecode": "0x6080604052348015600f57600080fd5b506138c58061001f6000396000f3fe608060405234801561001057600080fd5b50600436106100ea5760003560e01c8063380626f61161008c578063cf37433411610066578063cf37433414610282578063dfe0b5fe146102b5578063e7755761146102d1578063f37c215e14610303576100ea565b8063380626f614610205578063bbf44aa414610235578063bfc1691e14610251576100ea565b806310ee1b22116100c857806310ee1b221461015957806313bd20e214610175578063178c1f2a146101a55780631fc37922146101d5576100ea565b8063039a00ae146100ef578063049575051461010b57806309ec04571461013d575b600080fd5b61010960048036038101906101049190612531565b61031f565b005b610125600480360381019061012091906125bc565b6106c3565b60405161013493929190612749565b60405180910390f35b610157600480360381019061015291906127bd565b6107ba565b005b610173600480360381019061016e91906125bc565b610972565b005b61018f600480360381019061018a919061282c565b610cbc565b60405161019c91906128a3565b60405180910390f35b6101bf60048036038101906101ba91906128be565b610ee7565b6040516101cc9190612a2c565b60405180910390f35b6101ef60048036038101906101ea91906128be565b610fff565b6040516101fc9190612a2c565b60405180910390f35b61021f600480360381019061021a9190612a4e565b611117565b60405161022c9190612a2c565b60405180910390f35b61024f600480360381019061024a9190612aa7565b61139e565b005b61026b6004803603810190610266919061282c565b61176f565b604051610279929190612af6565b60405180910390f35b61029c600480360381019061029791906128be565b6117c3565b6040516102ac9493929190612bdd565b60405180910390f35b6102cf60048036038101906102ca919061282c565b611b19565b005b6102eb60048036038101906102e691906125bc565b611ede565b6040516102fa93929190612c88565b60405180910390f35b61031d6004803603810190610318919061282c565b611fd3565b005b6000835111610363576040517f08c379a000000000000000000000000000000000000000000000000000000000815260040161035a90612d12565b60405180910390fd5b600073ffffffffffffffffffffffffffffffffffffffff1660008460405161038b9190612d6e565b908152602001604051809103902060000160009054906101000a900473ffffffffffffffffffffffffffffffffffffffff1673ffffffffffffffffffffffffffffffffffffffff160361040e5760058390806001815401808255809150506001900390600052602060002001600090919091909150908161040c9190612f91565b505b6000808460405161041f9190612d6e565b90815260200160405180910390209050338160000160006101000a81548173ffffffffffffffffffffffffffffffffffffffff021916908373ffffffffffffffffffffffffffffffffffffffff160217905550838160010190816104839190612f91565b508260ff16600281111561049a57610499612614565b5b8160020160006101000a81548160ff021916908360028111156104c0576104bf612614565b5b02179055508060030160006104d591906121fa565b60005b82518110156105e55760008382815181106104f6576104f5613063565b5b6020026020010151905082600301819080600181540180825580915050600190039060005260206000200160009091909190916101000a81548173ffffffffffffffffffffffffffffffffffffffff021916908373ffffffffffffffffffffffffffffffffffffffff160217905550600260008273ffffffffffffffffffffffffffffffffffffffff1673ffffffffffffffffffffffffffffffffffffffff168152602001908152602001600020869080600181540180825580915050600190039060005260206000200160009091909190915090816105d69190612f91565b505080806001019150506104d8565b50600160003373ffffffffffffffffffffffffffffffffffffffff1673ffffffffffffffffffffffffffffffffffffffff168152602001908152602001600020849080600181540180825580915050600190039060005260206000200160009091909190915090816106579190612f91565b503373ffffffffffffffffffffffffffffffffffffffff167f07bbfdcd3d3f6a8cba209b70eb1fe9a90f761aae683e91b0b8649bc8f75dcdc0858560ff1660028111156106a7576106a6612614565b5b6040516106b5929190613092565b60405180910390a250505050565b6000806060600080856040516106d99190612d6e565b908152602001604051809103902090508060000160009054906101000a900473ffffffffffffffffffffffffffffffffffffffff168160020160009054906101000a900460ff1682600301808054806020026020016040519081016040528092919081815260200182805480156107a557602002820191906000526020600020905b8160009054906101000a900473ffffffffffffffffffffffffffffffffffffffff1673ffffffffffffffffffffffffffffffffffffffff168152602001906001019080831161075b575b50505050509050935093509350509193909250565b600080846040516107cb9190612d6e565b908152602001604051809103902090508060000160009054906101000a900473ffffffffffffffffffffffffffffffffffffffff1673ffffffffffffffffffffffffffffffffffffffff163373ffffffffffffffffffffffffffffffffffffffff161461086d576040517f08c379a00000000000000000000000000000000000000000000000000000000081526004016108649061310e565b60405180910390fd5b6000824261087b919061315d565b90506040518060400160405280600115158152602001828152506004866040516108a59190612d6e565b908152602001604051809103902060008673ffffffffffffffffffffffffffffffffffffffff1673ffffffffffffffffffffffffffffffffffffffff16815260200190815260200160002060008201518160000160006101000a81548160ff021916908315150217905550602082015181600101559050508373ffffffffffffffffffffffffffffffffffffffff167f780f596ecb91e1e030f57631a828b4c1f227615c1e11422248348930f6d2160c866040516109639190613191565b60405180910390a25050505050565b600080826040516109839190612d6e565b90815260200160405180910390209050600073ffffffffffffffffffffffffffffffffffffffff168160000160009054906101000a900473ffffffffffffffffffffffffffffffffffffffff1673ffffffffffffffffffffffffffffffffffffffff1603610a26576040517f08c379a0000000000000000000000000000000000000000000000000000000008152600401610a1d906131ff565b60405180910390fd5b8060000160009054906101000a900473ffffffffffffffffffffffffffffffffffffffff1673ffffffffffffffffffffffffffffffffffffffff163373ffffffffffffffffffffffffffffffffffffffff1603610ab8576040517f08c379a0000000000000000000000000000000000000000000000000000000008152600401610aaf9061326b565b60405180910390fd5b610ac28233610cbc565b15610b02576040517f08c379a0000000000000000000000000000000000000000000000000000000008152600401610af9906132d7565b60405180910390fd5b600360008260000160009054906101000a900473ffffffffffffffffffffffffffffffffffffffff1673ffffffffffffffffffffffffffffffffffffffff1673ffffffffffffffffffffffffffffffffffffffff16815260200190815260200160002060405180608001604052808481526020013373ffffffffffffffffffffffffffffffffffffffff1681526020016000151581526020016000151581525090806001815401808255809150506001900390600052602060002090600202016000909190919091506000820151816000019081610be09190612f91565b5060208201518160010160006101000a81548173ffffffffffffffffffffffffffffffffffffffff021916908373ffffffffffffffffffffffffffffffffffffffff16021790555060408201518160010160146101000a81548160ff02191690831515021790555060608201518160010160156101000a81548160ff02191690831515021790555050503373ffffffffffffffffffffffffffffffffffffffff167fee0616a3f5c7124ac9c522489fec438ce9643105349cd1d6669cc3cd1410e9b883604051610cb09190613191565b60405180910390a25050565b600080600084604051610ccf9190612d6e565b908152602001604051809103902090508273ffffffffffffffffffffffffffffffffffffffff168160000160009054906101000a900473ffffffffffffffffffffffffffffffffffffffff1673ffffffffffffffffffffffffffffffffffffffff1603610d40576001915050610ee1565b60016002811115610d5457610d53612614565b5b8160020160009054906101000a900460ff166002811115610d7857610d77612614565b5b03610d87576001915050610ee1565b6000600485604051610d999190612d6e565b908152602001604051809103902060008573ffffffffffffffffffffffffffffffffffffffff1673ffffffffffffffffffffffffffffffffffffffff1681526020019081526020016000206040518060400160405290816000820160009054906101000a900460ff16151515158152602001600182015481525050905080600001518015610e2b575080602001514211155b15610e3b57600192505050610ee1565b60005b8260030180549050811015610ed9578473ffffffffffffffffffffffffffffffffffffffff16836003018281548110610e7a57610e79613063565b5b9060005260206000200160009054906101000a900473ffffffffffffffffffffffffffffffffffffffff1673ffffffffffffffffffffffffffffffffffffffff1603610ecc5760019350505050610ee1565b8080600101915050610e3e565b506000925050505b92915050565b6060600260008373ffffffffffffffffffffffffffffffffffffffff1673ffffffffffffffffffffffffffffffffffffffff168152602001908152602001600020805480602002602001604051908101604052809291908181526020016000905b82821015610ff4578382906000526020600020018054610f6790612db4565b80601f0160208091040260200160405190810160405280929190818152602001828054610f9390612db4565b8015610fe05780601f10610fb557610100808354040283529160200191610fe0565b820191906000526020600020905b815481529060010190602001808311610fc357829003601f168201915b505050505081526020019060010190610f48565b505050509050919050565b6060600160008373ffffffffffffffffffffffffffffffffffffffff1673ffffffffffffffffffffffffffffffffffffffff168152602001908152602001600020805480602002602001604051908101604052809291908181526020016000905b8282101561110c57838290600052602060002001805461107f90612db4565b80601f01602080910402602001604051908101604052809291908181526020018280546110ab90612db4565b80156110f85780601f106110cd576101008083540402835291602001916110f8565b820191906000526020600020905b8154815290600101906020018083116110db57829003601f168201915b505050505081526020019060010190611060565b505050509050919050565b606060008260ff16600281111561113157611130612614565b5b90506000805b6005805490508110156111d65782600281111561115757611156612614565b5b60006005838154811061116d5761116c613063565b5b90600052602060002001604051611184919061337a565b908152602001604051809103902060020160009054906101000a900460ff1660028111156111b5576111b4612614565b5b036111c95781806111c590613391565b9250505b8080600101915050611137565b5060008167ffffffffffffffff8111156111f3576111f26122a7565b5b60405190808252806020026020018201604052801561122657816020015b60608152602001906001900390816112115790505b5090506000805b6005805490508110156113915784600281111561124d5761124c612614565b5b60006005838154811061126357611262613063565b5b9060005260206000200160405161127a919061337a565b908152602001604051809103902060020160009054906101000a900460ff1660028111156112ab576112aa612614565b5b0361138457600581815481106112c4576112c3613063565b5b9060005260206000200180546112d990612db4565b80601f016020809104026020016040519081016040528092919081815260200182805461130590612db4565b80156113525780601f1061132757610100808354040283529160200191611352565b820191906000526020600020905b81548152906001019060200180831161133557829003601f168201915b505050505083838151811061136a57611369613063565b5b6020026020010181905250818061138090613391565b9250505b808060010191505061122d565b5081945050505050919050565b6000600360003373ffffffffffffffffffffffffffffffffffffffff1673ffffffffffffffffffffffffffffffffffffffff168152602001908152602001600020905080805490508310611427576040517f08c379a000000000000000000000000000000000000000000000000000000000815260040161141e90613425565b60405180910390fd5b600081848154811061143c5761143b613063565b5b906000526020600020906002020190508060010160159054906101000a900460ff161561149e576040517f08c379a000000000000000000000000000000000000000000000000000000000815260040161149590613491565b60405180910390fd5b60018160010160156101000a81548160ff021916908315150217905550828160010160146101000a81548160ff02191690831515021790555082156116f257600080826000016040516114f1919061337a565b908152602001604051809103902090503373ffffffffffffffffffffffffffffffffffffffff168160000160009054906101000a900473ffffffffffffffffffffffffffffffffffffffff1673ffffffffffffffffffffffffffffffffffffffff16036116f057806003018260010160009054906101000a900473ffffffffffffffffffffffffffffffffffffffff169080600181540180825580915050600190039060005260206000200160009091909190916101000a81548173ffffffffffffffffffffffffffffffffffffffff021916908373ffffffffffffffffffffffffffffffffffffffff160217905550600260008360010160009054906101000a900473ffffffffffffffffffffffffffffffffffffffff1673ffffffffffffffffffffffffffffffffffffffff1673ffffffffffffffffffffffffffffffffffffffff1681526020019081526020016000208260000190806001815401808255809150506001900390600052602060002001600090919091909150908161167991906134dc565b508160010160009054906101000a900473ffffffffffffffffffffffffffffffffffffffff1673ffffffffffffffffffffffffffffffffffffffff167f780f596ecb91e1e030f57631a828b4c1f227615c1e11422248348930f6d2160c836000016040516116e79190613648565b60405180910390a25b505b8060010160009054906101000a900473ffffffffffffffffffffffffffffffffffffffff1673ffffffffffffffffffffffffffffffffffffffff167f9516c7620fb7843536672d03d7d499e906bb5f738ca60c6a1f3494b4a77c3678826000018560405161176192919061366a565b60405180910390a250505050565b600482805160208101820180518482526020830160208501208183528095505050505050602052806000526040600020600091509150508060000160009054906101000a900460ff16908060010154905082565b6060806060806000600360008773ffffffffffffffffffffffffffffffffffffffff1673ffffffffffffffffffffffffffffffffffffffff16815260200190815260200160002090506000818054905090508067ffffffffffffffff81111561182f5761182e6122a7565b5b60405190808252806020026020018201604052801561186257816020015b606081526020019060019003908161184d5790505b5095508067ffffffffffffffff81111561187f5761187e6122a7565b5b6040519080825280602002602001820160405280156118ad5781602001602082028036833780820191505090505b5094508067ffffffffffffffff8111156118ca576118c96122a7565b5b6040519080825280602002602001820160405280156118f85781602001602082028036833780820191505090505b5093508067ffffffffffffffff811115611915576119146122a7565b5b6040519080825280602002602001820160405280156119435781602001602082028036833780820191505090505b50925060005b81811015611b0f57600083828154811061196657611965613063565b5b9060005260206000209060020201905080600001805461198590612db4565b80601f01602080910402602001604051908101604052809291908181526020018280546119b190612db4565b80156119fe5780601f106119d3576101008083540402835291602001916119fe565b820191906000526020600020905b8154815290600101906020018083116119e157829003601f168201915b5050505050888381518110611a1657611a15613063565b5b60200260200101819052508060010160009054906101000a900473ffffffffffffffffffffffffffffffffffffffff16878381518110611a5957611a58613063565b5b602002602001019073ffffffffffffffffffffffffffffffffffffffff16908173ffffffffffffffffffffffffffffffffffffffff16815250508060010160149054906101000a900460ff16868381518110611ab857611ab7613063565b5b6020026020010190151590811515815250508060010160159054906101000a900460ff16858381518110611aef57611aee613063565b5b602002602001019015159081151581525050508080600101915050611949565b5050509193509193565b60008083604051611b2a9190612d6e565b908152602001604051809103902090503373ffffffffffffffffffffffffffffffffffffffff168160000160009054906101000a900473ffffffffffffffffffffffffffffffffffffffff1673ffffffffffffffffffffffffffffffffffffffff1614611bcc576040517f08c379a0000000000000000000000000000000000000000000000000000000008152600401611bc3906136e6565b60405180910390fd5b60008160030180549050905060005b81811015611daa578373ffffffffffffffffffffffffffffffffffffffff16836003018281548110611c1057611c0f613063565b5b9060005260206000200160009054906101000a900473ffffffffffffffffffffffffffffffffffffffff1673ffffffffffffffffffffffffffffffffffffffff1603611d9d5782600301600183611c679190613706565b81548110611c7857611c77613063565b5b9060005260206000200160009054906101000a900473ffffffffffffffffffffffffffffffffffffffff16836003018281548110611cb957611cb8613063565b5b9060005260206000200160006101000a81548173ffffffffffffffffffffffffffffffffffffffff021916908373ffffffffffffffffffffffffffffffffffffffff16021790555082600301805480611d1557611d1461373a565b5b6001900381819060005260206000200160006101000a81549073ffffffffffffffffffffffffffffffffffffffff021916905590558373ffffffffffffffffffffffffffffffffffffffff167fa4056635223780a71518e8c10b6fc0fd195775c8375c4841c124a959ae5c30ad86604051611d909190613191565b60405180910390a2611daa565b8080600101915050611bdb565b506000600260008573ffffffffffffffffffffffffffffffffffffffff1673ffffffffffffffffffffffffffffffffffffffff168152602001908152602001600020905060008180549050905060005b81811015611ed5578680519060200120838281548110611e1d57611e1c613063565b5b90600052602060002001604051611e34919061380c565b604051809103902003611ec85782600183611e4f9190613706565b81548110611e6057611e5f613063565b5b90600052602060002001838281548110611e7d57611e7c613063565b5b906000526020600020019081611e9391906134dc565b5082805480611ea557611ea461373a565b5b600190038181906000526020600020016000611ec1919061221b565b9055611ed5565b8080600101915050611dfa565b50505050505050565b6000818051602081018201805184825260208301602085012081835280955050505050506000915090508060000160009054906101000a900473ffffffffffffffffffffffffffffffffffffffff1690806001018054611f3d90612db4565b80601f0160208091040260200160405190810160405280929190818152602001828054611f6990612db4565b8015611fb65780601f10611f8b57610100808354040283529160200191611fb6565b820191906000526020600020905b815481529060010190602001808311611f9957829003601f168201915b5050505050908060020160009054906101000a900460ff16905083565b60008083604051611fe49190612d6e565b908152602001604051809103902090503373ffffffffffffffffffffffffffffffffffffffff168160000160009054906101000a900473ffffffffffffffffffffffffffffffffffffffff1673ffffffffffffffffffffffffffffffffffffffff1614612086576040517f08c379a000000000000000000000000000000000000000000000000000000000815260040161207d9061386f565b60405180910390fd5b6120908383610cbc565b156120d0576040517f08c379a00000000000000000000000000000000000000000000000000000000081526004016120c7906132d7565b60405180910390fd5b80600301829080600181540180825580915050600190039060005260206000200160009091909190916101000a81548173ffffffffffffffffffffffffffffffffffffffff021916908373ffffffffffffffffffffffffffffffffffffffff160217905550600260008373ffffffffffffffffffffffffffffffffffffffff1673ffffffffffffffffffffffffffffffffffffffff168152602001908152602001600020839080600181540180825580915050600190039060005260206000200160009091909190915090816121a69190612f91565b508173ffffffffffffffffffffffffffffffffffffffff167f780f596ecb91e1e030f57631a828b4c1f227615c1e11422248348930f6d2160c846040516121ed9190613191565b60405180910390a2505050565b5080546000825590600052602060002090810190612218919061225b565b50565b50805461222790612db4565b6000825580601f106122395750612258565b601f016020900490600052602060002090810190612257919061225b565b5b50565b5b8082111561227457600081600090555060010161225c565b5090565b6000604051905090565b600080fd5b600080fd5b600080fd5b600080fd5b6000601f19601f8301169050919050565b7f4e487b7100000000000000000000000000000000000000000000000000000000600052604160045260246000fd5b6122df82612296565b810181811067ffffffffffffffff821117156122fe576122fd6122a7565b5b80604052505050565b6000612311612278565b905061231d82826122d6565b919050565b600067ffffffffffffffff82111561233d5761233c6122a7565b5b61234682612296565b9050602081019050919050565b82818337600083830152505050565b600061237561237084612322565b612307565b90508281526020810184848401111561239157612390612291565b5b61239c848285612353565b509392505050565b600082601f8301126123b9576123b861228c565b5b81356123c9848260208601612362565b91505092915050565b600060ff82169050919050565b6123e8816123d2565b81146123f357600080fd5b50565b600081359050612405816123df565b92915050565b600067ffffffffffffffff821115612426576124256122a7565b5b602082029050602081019050919050565b600080fd5b600073ffffffffffffffffffffffffffffffffffffffff82169050919050565b60006124678261243c565b9050919050565b6124778161245c565b811461248257600080fd5b50565b6000813590506124948161246e565b92915050565b60006124ad6124a88461240b565b612307565b905080838252602082019050602084028301858111156124d0576124cf612437565b5b835b818110156124f957806124e58882612485565b8452602084019350506020810190506124d2565b5050509392505050565b600082601f8301126125185761251761228c565b5b813561252884826020860161249a565b91505092915050565b60008060006060848603121561254a57612549612282565b5b600084013567ffffffffffffffff81111561256857612567612287565b5b612574868287016123a4565b9350506020612585868287016123f6565b925050604084013567ffffffffffffffff8111156125a6576125a5612287565b5b6125b286828701612503565b9150509250925092565b6000602082840312156125d2576125d1612282565b5b600082013567ffffffffffffffff8111156125f0576125ef612287565b5b6125fc848285016123a4565b91505092915050565b61260e8161245c565b82525050565b7f4e487b7100000000000000000000000000000000000000000000000000000000600052602160045260246000fd5b6003811061265457612653612614565b5b50565b600081905061266582612643565b919050565b600061267582612657565b9050919050565b6126858161266a565b82525050565b600081519050919050565b600082825260208201905092915050565b6000819050602082019050919050565b6126c08161245c565b82525050565b60006126d283836126b7565b60208301905092915050565b6000602082019050919050565b60006126f68261268b565b6127008185612696565b935061270b836126a7565b8060005b8381101561273c57815161272388826126c6565b975061272e836126de565b92505060018101905061270f565b5085935050505092915050565b600060608201905061275e6000830186612605565b61276b602083018561267c565b818103604083015261277d81846126eb565b9050949350505050565b6000819050919050565b61279a81612787565b81146127a557600080fd5b50565b6000813590506127b781612791565b92915050565b6000806000606084860312156127d6576127d5612282565b5b600084013567ffffffffffffffff8111156127f4576127f3612287565b5b612800868287016123a4565b935050602061281186828701612485565b9250506040612822868287016127a8565b9150509250925092565b6000806040838503121561284357612842612282565b5b600083013567ffffffffffffffff81111561286157612860612287565b5b61286d858286016123a4565b925050602061287e85828601612485565b9150509250929050565b60008115159050919050565b61289d81612888565b82525050565b60006020820190506128b86000830184612894565b92915050565b6000602082840312156128d4576128d3612282565b5b60006128e284828501612485565b91505092915050565b600081519050919050565b600082825260208201905092915050565b6000819050602082019050919050565b600081519050919050565b600082825260208201905092915050565b60005b83811015612951578082015181840152602081019050612936565b60008484015250505050565b600061296882612917565b6129728185612922565b9350612982818560208601612933565b61298b81612296565b840191505092915050565b60006129a2838361295d565b905092915050565b6000602082019050919050565b60006129c2826128eb565b6129cc81856128f6565b9350836020820285016129de85612907565b8060005b85811015612a1a57848403895281516129fb8582612996565b9450612a06836129aa565b925060208a019950506001810190506129e2565b50829750879550505050505092915050565b60006020820190508181036000830152612a4681846129b7565b905092915050565b600060208284031215612a6457612a63612282565b5b6000612a72848285016123f6565b91505092915050565b612a8481612888565b8114612a8f57600080fd5b50565b600081359050612aa181612a7b565b92915050565b60008060408385031215612abe57612abd612282565b5b6000612acc858286016127a8565b9250506020612add85828601612a92565b9150509250929050565b612af081612787565b82525050565b6000604082019050612b0b6000830185612894565b612b186020830184612ae7565b9392505050565b600081519050919050565b600082825260208201905092915050565b6000819050602082019050919050565b612b5481612888565b82525050565b6000612b668383612b4b565b60208301905092915050565b6000602082019050919050565b6000612b8a82612b1f565b612b948185612b2a565b9350612b9f83612b3b565b8060005b83811015612bd0578151612bb78882612b5a565b9750612bc283612b72565b925050600181019050612ba3565b5085935050505092915050565b60006080820190508181036000830152612bf781876129b7565b90508181036020830152612c0b81866126eb565b90508181036040830152612c1f8185612b7f565b90508181036060830152612c338184612b7f565b905095945050505050565b600082825260208201905092915050565b6000612c5a82612917565b612c648185612c3e565b9350612c74818560208601612933565b612c7d81612296565b840191505092915050565b6000606082019050612c9d6000830186612605565b8181036020830152612caf8185612c4f565b9050612cbe604083018461267c565b949350505050565b7f4349442063616e6e6f7420626520656d70747900000000000000000000000000600082015250565b6000612cfc601383612c3e565b9150612d0782612cc6565b602082019050919050565b60006020820190508181036000830152612d2b81612cef565b9050919050565b600081905092915050565b6000612d4882612917565b612d528185612d32565b9350612d62818560208601612933565b80840191505092915050565b6000612d7a8284612d3d565b915081905092915050565b7f4e487b7100000000000000000000000000000000000000000000000000000000600052602260045260246000fd5b60006002820490506001821680612dcc57607f821691505b602082108103612ddf57612dde612d85565b5b50919050565b60008190508160005260206000209050919050565b60006020601f8301049050919050565b600082821b905092915050565b600060088302612e477fffffffffffffffffffffffffffffffffffffffffffffffffffffffffffffffff82612e0a565b612e518683612e0a565b95508019841693508086168417925050509392505050565b6000819050919050565b6000612e8e612e89612e8484612787565b612e69565b612787565b9050919050565b6000819050919050565b612ea883612e73565b612ebc612eb482612e95565b848454612e17565b825550505050565b600090565b612ed1612ec4565b612edc818484612e9f565b505050565b5b81811015612f0057612ef5600082612ec9565b600181019050612ee2565b5050565b601f821115612f4557612f1681612de5565b612f1f84612dfa565b81016020851015612f2e578190505b612f42612f3a85612dfa565b830182612ee1565b50505b505050565b600082821c905092915050565b6000612f6860001984600802612f4a565b1980831691505092915050565b6000612f818383612f57565b9150826002028217905092915050565b612f9a82612917565b67ffffffffffffffff811115612fb357612fb26122a7565b5b612fbd8254612db4565b612fc8828285612f04565b600060209050601f831160018114612ffb5760008415612fe9578287015190505b612ff38582612f75565b86555061305b565b601f19841661300986612de5565b60005b828110156130315784890151825560018201915060208501945060208101905061300c565b8683101561304e578489015161304a601f891682612f57565b8355505b6001600288020188555050505b505050505050565b7f4e487b7100000000000000000000000000000000000000000000000000000000600052603260045260246000fd5b600060408201905081810360008301526130ac8185612c4f565b90506130bb602083018461267c565b9392505050565b7f4f6e6c79206f776e657200000000000000000000000000000000000000000000600082015250565b60006130f8600a83612c3e565b9150613103826130c2565b602082019050919050565b60006020820190508181036000830152613127816130eb565b9050919050565b7f4e487b7100000000000000000000000000000000000000000000000000000000600052601160045260246000fd5b600061316882612787565b915061317383612787565b925082820190508082111561318b5761318a61312e565b5b92915050565b600060208201905081810360008301526131ab8184612c4f565b905092915050565b7f46696c65206e6f7420666f756e64000000000000000000000000000000000000600082015250565b60006131e9600e83612c3e565b91506131f4826131b3565b602082019050919050565b60006020820190508181036000830152613218816131dc565b9050919050565b7f4f776e657220616c726561647920686173206163636573730000000000000000600082015250565b6000613255601883612c3e565b91506132608261321f565b602082019050919050565b6000602082019050818103600083015261328481613248565b9050919050565b7f416c726561647920686173206163636573730000000000000000000000000000600082015250565b60006132c1601283612c3e565b91506132cc8261328b565b602082019050919050565b600060208201905081810360008301526132f0816132b4565b9050919050565b6000815461330481612db4565b61330e8186612d32565b94506001821660008114613329576001811461333e57613371565b60ff1983168652811515820286019350613371565b61334785612de5565b60005b838110156133695781548189015260018201915060208101905061334a565b838801955050505b50505092915050565b600061338682846132f7565b915081905092915050565b600061339c82612787565b91507fffffffffffffffffffffffffffffffffffffffffffffffffffffffffffffffff82036133ce576133cd61312e565b5b600182019050919050565b7f496e76616c696420696e64657800000000000000000000000000000000000000600082015250565b600061340f600d83612c3e565b915061341a826133d9565b602082019050919050565b6000602082019050818103600083015261343e81613402565b9050919050565b7f416c726561647920646563696465640000000000000000000000000000000000600082015250565b600061347b600f83612c3e565b915061348682613445565b602082019050919050565b600060208201905081810360008301526134aa8161346e565b9050919050565b6000815490506134c081612db4565b9050919050565b60008190508160005260206000209050919050565b8181036134ea5750506135c2565b6134f3826134b1565b67ffffffffffffffff81111561350c5761350b6122a7565b5b6135168254612db4565b613521828285612f04565b6000601f831160018114613550576000841561353e578287015490505b6135488582612f75565b8655506135bb565b601f19841661355e876134c7565b965061356986612de5565b60005b828110156135915784890154825560018201915060018501945060208101905061356c565b868310156135ae57848901546135aa601f891682612f57565b8355505b6001600288020188555050505b5050505050505b565b600081546135d181612db4565b6135db8186612c3e565b945060018216600081146135f6576001811461360c5761363f565b60ff19831686528115156020028601935061363f565b61361585612de5565b60005b8381101561363757815481890152600182019150602081019050613618565b808801955050505b50505092915050565b6000602082019050818103600083015261366281846135c4565b905092915050565b6000604082019050818103600083015261368481856135c4565b90506136936020830184612894565b9392505050565b7f4f6e6c79206f776e65722063616e207265766f6b650000000000000000000000600082015250565b60006136d0601583612c3e565b91506136db8261369a565b602082019050919050565b600060208201905081810360008301526136ff816136c3565b9050919050565b600061371182612787565b915061371c83612787565b92508282039050818111156137345761373361312e565b5b92915050565b7f4e487b7100000000000000000000000000000000000000000000000000000000600052603160045260246000fd5b600081905092915050565b60008190508160005260206000209050919050565b6000815461379681612db4565b6137a08186613769565b945060018216600081146137bb57600181146137d057613803565b60ff1983168652811515820286019350613803565b6137d985613774565b60005b838110156137fb578154818901526001820191506020810190506137dc565b838801955050505b50505092915050565b60006138188284613789565b915081905092915050565b7f4f6e6c79206f776e65722063616e206772616e74000000000000000000000000600082015250565b6000613859601483612c3e565b915061386482613823565b602082019050919050565b600060208201905081810360008301526138888161384c565b905091905056fea26469706673582212204351d20188145b2683a7f7531fb2fefe9ebdbcdf77b0451f6dedf4ec8e39cca264736f6c634300081c0033",
  "linkReferences": {},
  "deployedLinkReferences": {}
}